:020000040000fa
:080000000002040000000000f2
:020000040000fa
:04000800c80200002a
:020000040000fa
:04000c00c802000026
:020000040000fa
:04001000c802000022
:020000040000fa
:04001400c80200001e
:020000040000fa
:04001800c80200001a
:020000040000fa
:04001c00c802000016
:020000040000fa
:04002000c802000012
:020000040000fa
:04002400c80200000e
:020000040000fa
:04002800c80200000a
:020000040000fa
:04002c00c802000006
:020000040000fa
:04003000c802000002
:020000040000fa
:04003400c8020000fe
:020000040000fa
:04003800c8020000fa
:020000040000fa
:04003c00c8020000f6
:020000040000fa
:04004000c8020000f2
:020000040000fa
:04004400c8020000ee
:020000040000fa
:04004800c8020000ea
:020000040000fa
:04004c00c8020000e6
:020000040000fa
:04005000c8020000e2
:020000040000fa
:04005400c8020000de
:020000040000fa
:04005800c8020000da
:020000040000fa
:04005c00c8020000d6
:020000040000fa
:04006000c8020000d2
:020000040000fa
:04006400c8020000ce
:020000040000fa
:04006800c8020000ca
:020000040000fa
:04006c00c8020000c6
:020000040000fa
:04007000c8020000c2
:020000040000fa
:04007400c8020000be
:020000040000fa
:04007800c8020000ba
:020000040000fa
:04007c00c8020000b6
:020000040000fa
:04008000c8020000b2
:020000040000fa
:04008400c8020000ae
:020000040000fa
:04008800c8020000aa
:020000040000fa
:04008c00c8020000a6
:020000040000fa
:04009000c8020000a2
:020000040000fa
:04009400c80200009e
:020000040000fa
:04009800c80200009a
:020000040000fa
:04009c00c802000096
:020000040000fa
:0400a000c802000092
:020000040000fa
:0400a400c80200008e
:020000040000fa
:0400a800c80200008a
:020000040000fa
:0400ac00c802000086
:020000040000fa
:0400b000c802000082
:020000040000fa
:0400b400c80200007e
:020000040000fa
:0400b800c80200007a
:020000040000fa
:0400bc00c802000076
:020000040000fa
:0400c000c802000072
:020000040000fa
:0400c400c80200006e
:020000040000fa
:0400c800c80200006a
:020000040000fa
:0400cc00c802000066
:020000040000fa
:0400d000c802000062
:020000040000fa
:0400d400c80200005e
:020000040000fa
:0400d800c80200005a
:020000040000fa
:0400dc00c802000056
:020000040000fa
:0400e000c802000052
:020000040000fa
:0400e400c80200004e
:020000040000fa
:0400e800c80200004a
:020000040000fa
:0400ec00c802000046
:020000040000fa
:0400f000c802000042
:020000040000fa
:0400f400c80200003e
:020000040000fa
:0400f800c80200003a
:020000040000fa
:0400fc00c802000036
:020000040000fa
:04010000c802000031
:020000040000fa
:04010400c80200002d
:020000040000fa
:04010800c802000029
:020000040000fa
:04010c00c802000025
:020000040000fa
:04011000c802000021
:020000040000fa
:04011400c80200001d
:020000040000fa
:04011800c802000019
:020000040000fa
:04011c00c802000015
:020000040000fa
:04012000c802000011
:020000040000fa
:04012400c80200000d
:020000040000fa
:04012800c802000009
:020000040000fa
:04012c00c802000005
:020000040000fa
:04013000c802000001
:020000040000fa
:04013400c8020000fd
:020000040000fa
:04013800c8020000f9
:020000040000fa
:04013c00c8020000f5
:020000040000fa
:04014000c8020000f1
:020000040000fa
:04014400c8020000ed
:020000040000fa
:04014800c8020000e9
:020000040000fa
:04014c00c8020000e5
:020000040000fa
:04015000c8020000e1
:020000040000fa
:04020800c802000028
:020000040000fa
:04020c00c802000024
:020000040000fa
:04021000c802000020
:020000040000fa
:04021400c80200001c
:020000040000fa
:04021800c802000018
:020000040000fa
:04021c00c802000014
:020000040000fa
:04022000c802000010
:020000040000fa
:04022400c80200000c
:020000040000fa
:04022800c802000008
:020000040000fa
:04022c00c802000004
:020000040000fa
:04023000c802000000
:020000040000fa
:04023400c8020000fc
:020000040000fa
:04023800c8020000f8
:020000040000fa
:04023c00c8020000f4
:020000040000fa
:04024000c8020000f0
:020000040000fa
:04024400c8020000ec
:020000040000fa
:04024800c8020000e8
:020000040000fa
:04024c00c8020000e4
:020000040000fa
:04025000c8020000e0
:020000040000fa
:04025400c8020000dc
:020000040000fa
:04025800c8020000d8
:020000040000fa
:04025c00c8020000d4
:020000040000fa
:04026000c8020000d0
:020000040000fa
:04026400c8020000cc
:020000040000fa
:04026800c8020000c8
:020000040000fa
:04026c00c8020000c4
:020000040000fa
:04027000c8020000c0
:020000040000fa
:04027400c8020000bc
:020000040000fa
:04027800c8020000b8
:020000040000fa
:04027c00c8020000b4
:020000040000fa
:04028000c8020000b0
:020000040000fa
:04028400c8020000ac
:020000040000fa
:04028800c8020000a8
:020000040000fa
:04028c00c8020000a4
:020000040000fa
:04029000c8020000a0
:020000040000fa
:04029400c80200009c
:020000040000fa
:04029800c802000098
:020000040000fa
:04029c00c802000094
:020000040000fa
:0402a000c802000090
:020000040000fa
:0402a400c80200008c
:020000040000fa
:0402a800c802000088
:020000040000fa
:0402ac00c802000084
:020000040000fa
:0402b000c802000080
:020000040000fa
:0402b400c80200007c
:020000040000fa
:0402b800c802000078
:020000040000fa
:0402bc00c802000074
:020000040000fa
:0402c000c802000070
:020000040000fa
:0402c400c80200006c
:020000040000fa
:0402c800c802000068
:020000040000fa
:0402cc00c802000064
:020000040000fa
:0402d000c802000060
:020000040000fa
:0402d400c80200005c
:020000040000fa
:0402d800c802000058
:020000040000fa
:0402dc00c802000054
:020000040000fa
:0402e000c802000050
:020000040000fa
:0402e400c80200004c
:020000040000fa
:0402e800c802000048
:020000040000fa
:0402ec00c802000044
:020000040000fa
:0402f000c802000040
:020000040000fa
:0402f400c80200003c
:020000040000fa
:0402f800c802000038
:020000040000fa
:0402fc00c802000034
:020000040000fa
:04030000c80200002f
:020000040000fa
:04030400c80200002b
:020000040000fa
:04030800c802000027
:020000040000fa
:04030c00c802000023
:020000040000fa
:04031000c80200001f
:020000040000fa
:04031400c80200001b
:020000040000fa
:04031800c802000017
:020000040000fa
:04031c00c802000013
:020000040000fa
:04032000c80200000f
:020000040000fa
:04032400c80200000b
:020000040000fa
:04032800c802000007
:020000040000fa
:04032c00c802000003
:020000040000fa
:04033000c8020000ff
:020000040000fa
:04033400c8020000fb
:020000040000fa
:04033800c8020000f7
:020000040000fa
:04033c00c8020000f3
:020000040000fa
:04034000c8020000ef
:020000040000fa
:04034400c8020000eb
:020000040000fa
:04034800c8020000e7
:020000040000fa
:04034c00c8020000e3
:020000040000fa
:04035000c8020000df
:020000040000fa
:100400006f8020000ebf20000e0188000000000059
:10041000000020000000e000020032000001200087
:100420002002880014000700660007000000e000ba
:1004300003003a00208d2000010020000200370058
:100440000000200001002000810f70000100320038
:1004500014000700000020000000e000020032004d
:1004600000000200000000008a07020000000000f7
:100470000040da000000fe004440a900e001200036
:100480000000e0000300320000002000a00188000e
:100490004440a800000006008a1f78008b1f7800e7
:1004a0000000060091018800800478000000eb0045
:1004b0001a003700e284440032a0b4009905ba0063
:1004c000e284440032a0b4009906ba00e2844400f9
:1004d00032a0b4000006eb00476fde00fd07b2005b
:1004e000636ce10003003a00ebff07000000eb0043
:1004f0000a003700606ce10004003a00005deb0088
:100500008b05e900fdff3e00040037006168e10053
:10051000010032000086eb000b00070019c7ba008b
:100520001905ba000e04e00003003a000a00e000da
:10053000e0ff3a0000000600fe07b2009e018800be
:100540008a047800f5ff3700395dba008b05e900b1
:100550000c003200295dba008b05e900080032006a
:100560000c00e00003003a00e284440032a0b40032
:10057000f5ff370019ddba008b05e900faff3a00f4
:100580008904e800e184440032a0b40000000600c1
:100590000040da000000fe00000178001001e200d7
:1005a000020035001061a80011e1a80030088000a9
:1005b000410880000200e000010032000089be0016
:1005c0000000060000000500889fbe008a9fbe0054
:1005d0008c1f78009d000700a400330003866c0088
:1005e0006450e1002e0032006420e100330032004c
:1005f0006150e1002f0032006120e1003100320043
:1006000085855500eb07b000090020000804200094
:10061000050037000804440089844c000a003100ba
:100620000603430087834b000001530081815b0078
:10063000f8ff33000203be000800a00008044400d5
:1006400089844c00f6ff3900c639dd008301730050
:1006500001003200130020008904d1000884d30077
:100660000998a300050032000800a7000300a000bd
:100670008904d1000884d3008b05e8008904d100e7
:100680000884d3000001eb000281d200340007008f
:1006900001f0a1000cf0a70001f0a0007c003700e1
:1006a0006420e1007e0032000801be000200be00ae
:1006b000f7ff37006120e100790032006000b800e8
:1006c000f3ff37000000200001f82700f0ff37009b
:1006d0000001be00480007000470a70003f0a1005d
:1006e0006509b100160032000d0035006828e100f0
:1006f00006003500f0ff2f00f1ff27000300e000a7
:1007000013003b000100280000000500000040002d
:10071000818048008502e900fcff3a0008003700ac
:10072000f88f420002003c008000eb000000050052
:100730008100d1000080d3008502e800fcff3a0070
:100740000300e00002003b0060001000e0801800a1
:10075000000006004f89de00820178008700370024
:1007600081002000618055000b003d000b0020003f
:1007700061fe2f000100e1001d0034008281710044
:10078000610164008904d1000884d3000000e800fe
:10079000faff3a007100200061006400030070005d
:1007a000020060000900320061044400e0844c0053
:1007b0000988a500050032008b05e8006808e10003
:1007c00002003a008904d1000884d300f20f20000f
:1007d0000258e10005003d00c75ddd00f907b200e9
:1007e0008980750008007800000006000bf82700db
:1007f0008b00780000000500c70ade00f107b20098
:10080000f50fb20008003200e1cf420002003200d2
:100810000170a00024000500810f7000010032006b
:100820000408050044000500810f700002003a0032
:10083000140005008502e9000000400081c0480066
:10084000fcff3b000170a000240005000004be0076
:10085000e9ff07000003be000405be000200be0061
:10086000e5ff0700844f7500000006000200be008f
:100870006450e100050036006420e100020036000b
:100880000968a30001003a000800be000160a00052
:100890004f0678004f05be004f04be000000060062
:1008a000f0ff2f00f1ff2700f9ff3700889fbe00ff
:1008b0008a9fbe008c1f7800e4ff0700ebff330027
:1008c00003866c006450e100240032006420e100e3
:1008d000270032006150e100220032006120e10077
:1008e000210032008b854200eb07b1000134b800d3
:1008f000003ab8000804420089844a00013ab8006e
:100900000030b8008880400009014a00040033002c
:100910000000400081804800020149008b05e90089
:10092000c909dd00830170000100320013002000be
:10093000c814de004814dd004709de001200b200d2
:10094000c808de000884700085ff070001f0a100e0
:100950000cf0a70001f0a000cdff37006120e100fe
:10096000cfff32000801be000200be00f7ff3700d3
:100970006150e100fcff3a00c9ff3700881f780092
:10098000030478000300e00007003d006000100051
:10099000e080180060011900e081190002003b00ae
:1009a00001f02d00030037000400070008f0a70045
:1009b00001f0a0004f04780000000600889fbe00f0
:1009c0008a9fbe00008270000402710004827100e0
:1009d000260032000004be000200be006011b80014
:1009e0006b092000950220000182cf000a00390027
:1009f0000541b1000082cf00070039000541b10078
:100a00000982cf00040039000541b1000882cf00ff
:100a1000010039000541b1000542520012003200c8
:100a20000a003b0082817100610164008100d100f5
:100a30000080d3008984d3000884d3008b05e800ac
:100a40000442e800f7ff3a000700370008044400ba
:100a500089844c0000004800818048008b05e90033
:100a60000442e900f9ff3a003dff07004f05be00d0
:100a70004f04be00000006000000eb00c6fe370079
:020000040000fa
:100a800030310000323300003435000036370000ca
:100a900038390000005600005f72000065660000f3
:100aa0003a0000002e000000205600000056000012
:0c0ab0005f6f0000757400003a00000049
:020000040000fa
:100abc000800fa0030079800be009000803e20002d
:100acc000088b90000007800000f7800e7ff0700ed
:100adc00100798002107980000000000e3ff0700b2
:100aec000001be001e0078006102b9001e009000db
:100afc00ae0090000400400085804800800f51003b
:100b0c00818f5900f5ff35000080fa0000000600c7
:100b1c000200fa00004f78001e00fb00610060002c
:100b2c00004078000004e00002003200ca82a800f5
:100b3c0001003700ca82a9001e00fb0062006000a1
:100b4c000000e00002003200cb22a80001003700b8
:100b5c00cb22a9001e00fb00640060000000e00036
:100b6c0002003200cb82a80001003700cb82a90022
:100b7c001e00fb00680060000000e0000200320074
:100b8c00ca02a80001003700ca02a9000080fa00be
:100b9c00000006000200fa00004f7800cba2a9006a
:100bac001e407800daff0700cb02a80040002000ae
:100bbc00bfff0700cb02a9000080fa00000006006e
:100bcc000000fa000040eb00f2ff070010c0b30079
:100bdc00f0ff07000080fa00000006000600fa0093
:100bec0040479800514798000040eb00004f7800b8
:100bfc000040eb00104798004e409000e14f500031
:100c0c000f003a005e409000f047b000204798007b
:100c1c002e4090000000fb004480de00004f780066
:100c2c002e4090006f406000104798001e407800e6
:100c3c00d8ff07001e409000d6ff070012003700b7
:100c4c004e409000e24f50000f003a00de40900002
:100c5c00f0cbb30000c04000204798002e4090001d
:100c6c000000fb004480de00004f78002e40900016
:100c7c006f406000104798001e407800c5ff0700c9
:100c8c001e409000c3ff07000080fa000000060021
:100c9c000200fa000040eb009dff0700f0ff270068
:100cac00000f780002003700000000001e0fe90062
:100cbc001e0078000000e000fbff340030c0b300e1
:100ccc00b4ff07005000200079ff070030c0b300cc
:100cdc00b0ff0700b000200075ff070030c0b30064
:100cec00acff070020c0b300aaff070020c0b30070
:100cfc00a8ff070080c0b300a6ff07000040eb0070
:100d0c00a4ff0700c0c0b300a2ff07000040eb0027
:100d1c00a0ff070060c0b3009eff07000080fa0030
:100d2c00000006000600fa00404798004e40900074
:100d3c006f40600020479800ce40900000cfb30079
:100d4c0000c0600030479800cba2a8003e40900045
:100d5c000000fb004480de00004078006cff0700c0
:100d6c00cb02a8000080eb00000f780002003700d7
:100d7c00000000001e0fe9001e0078000000e000db
:100d8c00fbff3400cb02a9002e40900060ff07004f
:100d9c00cb02a8000080eb00000f780002003700a7
:100dac00000000001e0fe9001e0078000000e000ab
:100dbc00fbff3400cb02a9000080fa000000060003
:100dcc000400fa00100798000000eb00000f7800f8
:100ddc00060037001e0078009e0090000080400046
:100dec0010407800cfff07001e0fe8001e007800af
:100dfc009e00900000804000104078000004e0004d
:100e0c00f4ff3a000080fa00000006001400fa001b
:100e1c00000f9800110f980000542800e4004700c0
:100e2c000a000900b0587800b000b1009e0890008c
:100e3c00010f78000e0890000000e00007003d0054
:100e4c001e007800d1c2b300014878001e0fe800e4
:100e5c000e0890000000ea00000f98008e08900029
:100e6c00110798001e0fe8001e0190007066260006
:100e7c000090b900c288de004f90de000080500068
:100e8c00100798001e0090000000e000f5ff3a00eb
:100e9c001e0078008040eb00014878001e0fe9002e
:100eac008e089000706626000089b9004299de0019
:100ebc004f88de00000051006a01b9000200780082
:100ecc000080500000004700c04090001e007800d9
:100edc00014878000e099000706626000090b90059
:100eec00c288de004f90de0000805000000f98009a
:100efc000e0890000000e000e8ff3a001e08900089
:100f0c000080fa00000006001000fa0070ff2f00ad
:100f1c0060198800c022ef00c822ef00c822a80088
:100f2c006010200000198800303020004019880023
:100f3c008000200080198800400e200000198800d5
:100f4c002223ef0050f021002019880021e3a80093
:100f5c004fff07002023a900510037000018800024
:100f6c00100798001e009000cf80de00f6fd0700f1
:100f7c00d2cc2c00c309240049fe0700d1fd070088
:100f8c00100798009e009000210798001e01900009
:100f9c00b01a24000090b900c888de004f90de0023
:100fac000080500030079800018020003e00900027
:100fbc0096ff07001e019000b04721000090b90079
:100fcc00c388de004f90de0080805000a00020001f
:100fdc0000017800110009008200d8008000fd009b
:100fec0040079800118020004e00900087ff0700fa
:100ffc001e019000706626000090b900c288de00c9
:10100c004f90de0000805000716626000181b9000f
:10101c004299de00cf80de00810051006a09b900e0
:10102c0082007800010050005007980021802000b9
:10103c005e00900075ff07002e009000cf80de0050
:10104c00c1fd070062102000a32f24005bfd0700e8
:10105c009cfd070060079800318020006e00900016
:10106c006aff07002e019000b04721000090b900e4
:10107c00c388de004f90de0080805000a00020006e
:10108c0000017800110009008200d8008000fd00ea
:10109c0070079800518020007e0090005bff0700d5
:1010ac0000198000610060000000e000abff3a0016
:1010bc00c3fe070021c0b30010c0b300c7fe070079
:1010cc00b05428003eff070021c0b30020c0b3007d
:1010dc00c2fe07000000eb00000f78001100370083
:1010ec00008020001e004000104078000dff07001b
:1010fc002055280032ff0700108020001e00400001
:10110c001040780007ff0700208020001e004000e0
:10111c001040780003ff07004055280028ff070007
:10112c001e0fe8001e0078000000e000ecff340009
:10113c00800c20005efe0700a1fe070021c0b3005a
:10114c0010c0b300a5fe0700705528001cff070057
:10115c0021c0b30020c0b300a0fe070003c8bf002d
:10116c00f0fe070004c8bf00eefe07002055280063
:10117c0013ff070005c8bf00eafe07004055280012
:10118c000fff07000040eb00e6fe0700800c20007c
:08119c0047fe07006eff37005b
:020000040000fa
:1011a400000800000600000000000000000000002d
:020000040000fa
:0200000401f009
:04000000ffff0000fe
:020000040000fa
:0200000401f009
:04000800ffff0000f6
:020000040000fa
:0200000401f009
:04000c008700000069
:020000040000fa
:0200000401f009
:04001000e300000009
:00000001FF
